:020000000C945E
:100002002A000C9400000C9400000C9400000C9444
:1000120000000C9400000C9400000C9400000C945E
:1000220000000C9400000C9400000C9400000C944E
:1000320000000C9400000C9400000C9400000C943E
:1000420000000C9400000C9400000C9400000C942E
:100052000000F894EE27ECBBF1E0FBBFEBBFE5BF7D
:100062008DE0A2E0BB27ED938A95E9F780E094E06A
:10007200A0E6ED930197E9F7EFE5EDBFE4E0EEBF0F
:10008200C0E6D1E00C944500E1E0EABBE0E0EBBB66
:10009200E7BBE8BBE4BBE5BBE1BBE2BBE3BFE2BF5E
:1000A200ECBFEFBDEEBDEDBDECBDE7BDE6BDEBBD0A
:1000B200EABDE9BDE8BDE2BDE5BDE4BDE3BDE9BF22
:1000C200E5BFE4BFEAB9E0E8E8B9E0E0E0BFE6B9DD
:1000D200EDB9E6BFD89AA4EFB1E00E947700D898B4
:1000E200A4EFB1E00E947700F5CFFFCF109639F070
:1000F200A89580ED97E00197F1F71197C9F7089558
:00000001FF
